S011000053414D4420546573742E737265632E
S113000080240020190100001501000015010000E2
S113001000000000000000000000000000000000DC
S113002000000000000000000000000015010000B6
S11300300000000000000000150100001501000090
S11300401501000015010000150100001501000054
S11300501501000015010000150100001501000044
S11300601501000015010000150100001501000034
S11300701501000000000000000000001501000050
S11300801501000015010000150100001501000014
S11300901501000000000000000000001501000030
S11300A015010000150100001501000015010000F4
S11300B00000000010B5064C2378002B07D1054B37
S11300C0002B02D0044800E000BF0123237010BDC0
S11300D03C0400200000000014040000084B10B58C
S11300E0002B03D00749084800E000BF0748036815
S11300F0002B00D110BD064B002BFBD09847F9E72D
S11301000000000040040020140400001404000057
S113011000000000FEE70000F8B52A4A2A4B9A4284
S113012011D01A00294B9A420DD2294A03339B1A43
S11301309B0801339B000022234822498C58845099
S113014004329A42FAD1234A234B9A420AD2D34325
S113015021495B1803218B4304339B18002102C2FD
S11301609342FCD11D4AFF211D4B8B439360FD3903
S113017090235B001B4AD1501B4AD3780325AB4321
S113018002242343D370D3780C27BB43082633437C
S1130190D370164B987B30229043202210439873DF
S11301A0997BB943314399739A7BAA4322439A7347
S11301B00F4A536880210B4353600E4B98470E4BF4
S11301C09847FEE714040000000000203C040020CF
S11301D0040000203C0400207C04002000ED00E02A
S11301E00000000000700041005000410048004140
S11301F0004000414D0200000D020000014A024B84
S11302001A60704740420F000C000020F8B5094BFB
S1130210984780221201084B1A60084E084D094F76
S11302203000A847802424013C603000A847064BD6
S11302301C60F5E7FD0100000844004110270000A0
S113024001000020184400411444004170B50D4ED3
S11302500D4D0024AD1BAD1005D0A300F35801349F
S11302609847A542F9D100F0C3F8084E084D002480
S1130270AD1BAD1005D0A300F35801349847A54237
S1130280F9D170BDFC030000FC030000FC03000076
S113029004040000034B10B5002B02D0024800F008
S11302A005F810BD00000000BD02000010B50100FB
S11302B000230022002000F01FF810BD70B5094B88
S11302C0094CE41AA41009D0084AA518AD00ED1889
S11302D02B68013C9847043D002CF9D100F092F8BA
S11302E070BDC0461004000014040000FFFFFF3F6F
S11302F07047C0467047C046F0B54E464546DE4698
S11303005746E0B5364D83B00600286898460F007E
S11303109146FFF7EDFF334B1C68A4235B00E058C4
S1130320002852D043681F2B13DC5A1C0192002E64
S113033028D1019A02339B0042601F502868FFF7BE
S1130340D9FF002003B03CBC90469946A246AB4678
S1130350F0BD254B002B3DD0C820400000E000BF7D
S1130360002837D0A42200235200A1584360016022
S1130370A050403283500432835001330193002350
S1130380002ED6D09A00924682444A46882154468A
S11303906250C4225200914681444A4687399940AA
S11303A012688B460A4394464A4661461160842289
S11303B041465200A150022EBBD102005C468D3250
S11303C0FF3211680C431460B3E720004D30FF3056
S11303D0E050A7E72868FFF78DFF01204042B1E70E
S11303E038040020EC03000000000000100000208E
S11303F0F8B5C046F8BC08BC9E467047950200009C
S1130400DD000000F8B5C046F8BC08BC9E46704745
S1070410B50000002F
S11304140F210139FDD10138FAD1704740420F0050
S113042400000000FC02002064030020CC03002030
S113043400000000000000000000000000000000B4
S113044400000000000000000000000000000000A4
S11304540000000000000000000000000000000094
S11304640000000000000000000000000000000084
S11304740000000000000000000000000000000074
S11304840000000000000000000000000000000064
S11304940000000000000000000000000000000054
S11304A40000000000000000000000000000000044
S11304B40000000000000000000000000000000034
S11304C40000000000000000010000000000000023
S11304D40E33CDAB34126DE6ECDE05000B000000E8
S11304E40000000000000000000000000000000004
S11304F400000000000000000000000000000000F4
S113050400000000000000000000000000000000E3
S113051400000000000000000000000000000000D3
S10F084400000000000000005804002028
S9030000FC
