:1000000080020020650A00004D0A00004D0A000031
:1000100000000000000000000000000000000000E0
:100020000000000000000000000000004D0A000079
:1000300000000000000000004D0A00004D0A000012
:100040004D0A00004D0A00004D0A00004D0A000054
:100050004D0A00004D0A00004D0A00004D0A000044
:100060004D0A00004D0A00004D0A00004D0A000034
:100070004D0A00004D0A00004D0A00004D0A000024
:100080004D0A00004D0A00004D0A00004D0A000014
:100090004D0A00004D0A00004D0A00004D0A000004
:1000A0004D0A00004D0A00004D0A00004D0A0000F4
:1000B00038B501257548C17E01220A43C276017810
:1000C000F0220A400270017802220A430270017F86
:1000D00001220A43027701780907090F01700178AC
:1000E00020220A430270AA4C200000F0ABF9A94973
:1000F0000A68831C9D4015430D6000BF11A109686B
:100100000091A5490A88A54B134014308006800E43
:100110001843088008886A461288A14B1340184388
:100120000A0C02430A80802252039E49200000F0FC
:100130009DF99D480021017041708170C17001716D
:10014000417131BD0000000080B5C1B2904800F09F
:10015000BBF9012002BD80B58D48017E4907FCD561
:1001600000F0B7F902BD80B5B2480078400705D568
:10017000FFF7F1FF232801D1012002BD002002BDBD
:10018000AC4801784807C00F704770B50D000400F7
:10019000002604E02078FFF7D7FF641C761CAE42EF
:1001A000F8D3300070BD10B50400FFF7D4FF207005
:1001B000012010BD0002484008214200000402D581
:1001C0009D48504000E01000491EF6D180B27047B3
:1001D000F3B581B000260027984D17E03100E0B25A
:1001E000FFF7E8FF06002889002802D1A879002837
:1001F0000BD0019804700198401C0190684600895A
:10020000802802D12889401E28817F1C68460089E9
:10021000BFB2874207D2FFF79EFF0400687900282B
:10022000DCD00120FEBD3000FEBDF8B505000C009D
:1002300002216846FFF7CCFF80212800FFF7C8FFA6
:1002400005007E4E7079002808D1FFF784FF070271
:10025000FFF781FF38187179012901D10020F2BD23
:1002600080B2A84208D168460178A14204D1407802
:10027000E143C9B2884203D01820FFF765FFEDE7DC
:100280000620FFF761FF0120F2BD00003B44004162
:10029000FEB50F0001216B46197002900020674ADD
:1002A0005071002F01D0178100219171780602D082
:1002B00080377F208743FFF74EFF60494979002947
:1002C00008D000205D494871FFF745FF5B49497937
:1002D000002940D1C0B2152805D0432803D0712889
:1002E000E9D10020FEBD0298019000260120FFF711
:1002F0002BFF68460078FFF727FF68460178C84360
:10030000C0B2FFF721FF80244C480089002805D1A6
:100310004A498979002901D1002506E001990D7823
:10032000491C0191401E454908812800FFF70CFF38
:1003300031002800FFF73EFF0600641EE4D1000AEA
:10034000FFF702FFF0B2FFF7FFFEFFF704FF3B49A4
:100350004979002903D0002038494871FEBDC0B258
:10036000062808D168460078401C69460870803F1E
:10037000029880300290002FB5D10420FFF7E4FEF0
:10038000FFF7E9FE00202D4988710120FEBD000025
:100390000014004220040040020C0040C0FF000096
:1003A000FF70000004C5000070000020F8B5009048
:1003B0006426012001240025204F7D71002901D1F0
:1003C000B87101E03981BD714320FFF7BDFE1C48C3
:1003D00002E0002806D0401E164909784907F8D5E2
:1003E000002806D1761EEFD116E0012816D000288D
:1003F0001CD0FFF7B0FE797900290CD1C0B20128DA
:1004000002D004280FD011E0E1B20098FFF70DFFF1
:1004100079790029E9D07D710020F2BD641C009833
:1004200080300090E5E70620FFF78EFEBD710120C9
:10043000F2BD0000181400422110000070000020DE
:1004400000350C0010B586B0040068462DA11822B6
:1004500000F078F800206A46810051588C4203D0A1
:10046000401C0628F8D3002006B010BD30B501238B
:10047000C46964081C40FBD104680225AC430460D5
:10048000C4691C40FCD104681C43046004681C401F
:10049000FCD1C4691C40FCD1C46964081C40F8D17B
:1004A000164C14430460C26992081A40FBD1C02262
:1004B000920242608181C16949081940FBD10168FB
:1004C00002220A43026030BD027ED207FCD50185BC
:1004D00070470121027E92080A42FBD0428B0A42F9
:1004E00007D1428B52080A4203D1428B92080A423A
:1004F00001D0034A1170008DC0B270470400004063
:100500007B00002000080042000C00420010004266
:100510000014004200180042001C0042124207D0A2
:100520008B0706D00B78491C0370401C521EF7D86D
:100530007047830706D00B78491C0370401C521E7D
:10054000F9D1704770B4103A03D378C9103A78C023
:10055000FBD2530701D318C918C001D508C908C078
:10056000D20704D30B880380891C801C002A01D584
:100570000B78037070BC7047012805D1BA4800BFE2
:1005800002A1416001214170704700004901000053
:1005900057010000810100008B010000A70100004D
:1005A00091020000AD030000F0B585B0AE4A1378AB
:1005B000002B2CD0042901D1006804E0022901D1CC
:1005C000008800E00078490001AB5C180094641CCE
:1005D0000025302604E0373727700009641E6D1CA3
:1005E0008D4205D207073F0F0A2FF4DA3743F3E7AE
:1005F0001E70782058700A20009B98700D20009B78
:10060000D870091D01A85268D268904702E052686C
:10061000D268904705B0F0BD72B6BFF35F8F00217E
:10062000924A1170EFF308818F4A9160016881F35B
:100630000888406800477047F8B500258A4CA561D6
:100640007A20A0704021200024306268126990470F
:10065000606120002430E061256107E0A070E56062
:10066000E069401CE0612069401C206120696169EB
:100670008842E7D2E06900780100FF29F3D02329FE
:1006800000D0D6E02078002804D0022178A062684B
:10069000D2689047A178A06953292BD1616922695A
:1006A0008A4216D2E3695B1CE361521C2261891AFB
:1006B000E268914200D3110021620A461946FFF711
:1006C0002DFF206A216909182161E1690918E1619A
:1006D000E0702069401E2061E069401EE061E07822
:1006E000E168884204D2091AA06962689269904759
:1006F00000BF92E0522904D1E168626852699047D4
:100700008BE04F2902D1E168017086E0482902D1CF
:10071000E168018081E0572902D1E16801607CE055
:100720006F2901D101210CE0682903D10088E06024
:10073000022104E0772907D10068E060042120004D
:100740000C30FFF731FF68E00126472912D1E0683D
:10075000FFF762FFA06880F3088844480670BFF383
:100760005F8F62B66078002857D0062061680968FC
:10077000884752E0542901D1267049E04E2909D119
:100780002078002804D1022139A06268D2689047FD
:10079000257042E0562940D1012136A06268D26816
:1007A000904700BF3CA000F079F801003AA06268D1
:1007B000D2689047012130A06268D268904700BF9C
:1007C0002FA0E061256101E0491C2161E069411C25
:1007D000E161216900780028F6D100BF28A0626895
:1007E000D2689047012124A06268D26890472561B1
:1007F00026A0E06101E0491C2161E069411CE16142
:10080000216900780028F6D120A06268D26890475C
:10081000022117A06268D26890477A20A070E56034
:100820002078002804D0012114A06268D268904783
:1008300016E70600E26813013700303F0A2F03D2A3
:1008400030391943E1600BE73700413F062F01D2F1
:100850003739F6E7613E062E01D25739F1E72C29E8
:1008600000D0FBE6A261FAE60C00002005000020A3
:100870000A0D000076000000200000003E0000008D
:1008800041756720313120323031340032303A3313
:10089000323A333600000000312E3100010000E012
:1008A000491C0A78002AFBD1081A704710B5324853
:1008B00001681E22914302220A4302602F48016808
:1008C0002F4A0A40026000BF35A001682D48C01CB5
:1008D00002680F239A430260C01E802203781342ED
:1008E000FCD1C01C0368284C0C40234383214902DF
:1008F00019430160C01E01781142FCD110BD0000F7
:10090000F8B58024A40500202060600C41680546ED
:100910000022D243914214D01C4AC3001360062621
:100920001B4F3E705361D2691204D30F6A46137095
:100930001278002A05D0006880F308881548056001
:100940000847FFF7B3FF012013490870BFF35F8F1B
:1009500062B6206840192060FFF7AAFB0F4C207890
:100960000028FCD1FFF7FFFB0028F8D00120FFF79B
:1009700003FEFFF761FEFCE7044000412008004051
:10098000FFFCFFFF010C0040FFE0DFFF04440041DB
:100990004F44004108ED00E0050000207A000020EF
:1009A0000000000038B401210268001D002A0FD0A9
:1009B0000368C318446808300C4202D04D466D1ECF
:1009C00064191D6825601B1D241D121FECD0F8E75B
:1009D00032BC704738B4012100220368001D002B8F
:1009E0000BD00468001D0C4202D04D466D1E6419E8
:1009F0002260241D1B1FF0D0FAE732BC70470000B4
:100A000010B5074979441831064C7C44163404E08B
:100A1000081D0A68891888470100A142F8D110BD55
:100A20000800000028000000ADFFFFFF700000007C
:100A30000C000020000000006DFFFFFF0800000018
:100A40007C0000000400002000000000FEE70348D6
:100A5000FF21884302490860012070470000000020
:100A600008ED00E080B500F001F801BDC046C046C9
:100A7000C046C04600F000F8FFF7E9FF002801D0AB
:100A8000FFF7BEFF0020C046C046FFF739FF00F069
:100A900000F880B500F002F801BD000007463846B6
:100AA00000F002F8FBE7000080B5C046C046024AED
:100AB00011001820ABBEFBE7260002000001000079
:040AC0000000000032
:0400000500000A6D80
:00000001FF
