:1000000060040020210E0000090E0000090E00000F
:1000100000000000000000000000000000000000E0
:10002000000000000000000000000000090E0000B9
:100030000000000000000000090E0000090E000092
:10004000090E0000090E0000090E0000090E000054
:10005000090E0000090E0000090E0000090E000044
:10006000090E0000090E0000090E0000090E000034
:10007000090E0000090E0000090E0000090E000024
:10008000090E0000090E0000090E0000090E000014
:10009000090E0000090E0000090E0000090E000004
:1000A000090E0000090E0000090E0000090E0000F4
:1000B00038B5AE48016820220A430260AC490120ED
:1000C0000A7F02430A770A78F02313400B70062256
:1000D0000B7806241C430C704B7F03434B770B7843
:1000E0001B071B0F0B700B7860241C430C7000BFA8
:1000F0002AA1096800919F490B889F4C1C4022430C
:100100000A800A886B461B889C4C1C402243822331
:10011000DB0113430B809A490A7802430A708A78FC
:100120000242FCD11F20974A13685B0B03401F2B30
:1001300000D105230C8D944D25409B012B430B854D
:1001400013689B0C18401F2800D11D200B8D8F4C6D
:100150001C402043088510688001400F072800D10B
:1001600003200A8D8A4B1340000318430885087842
:100170004006400E08700878042202430A70854841
:1001800048620A89844B13400B810A89834B1340D0
:100190000B81802100F030FB31BD00000000000029
:1001A00001600021017141717D4981607D49C1601B
:1001B0007D49016101680A78022313430B7070477F
:1001C00070B5040021688020400008180A31082218
:1001D0004B8A134228D04B8A1A434A8280220A70E3
:1001E00011210170402141710271C0239B05BD4D59
:1001F000684A56682E401E435660566935402B4368
:1002000053616A4B13601300943313615368684D54
:100210001D40CB022B43536053689B0B9B035360E1
:1002200001710020207105E0C079C00602D52000D0
:1002300000F0CEF8207970BDF2B582B006680025D6
:1002400000950124534859495A4B1B78002B14D16F
:100250000B0040330364436C9B0B9B034364436C70
:10026000534F1F404764A2235B00F75C40233B438E
:10027000A2277F00F3554F4B1C70A2235B00F3189D
:10028000DB78DB0719D54C4B476C1F40974203D2F4
:10029000406C0340009300E00092009A40310298C5
:1002A00000F0ACFAA22040003018C0780443A2202D
:1002B00040003018C4703F4805700098FEBDF4B58A
:1002C0000668180000D001205D01324A5419009BD5
:1002D0009C46012763695B005B0FDB1C9F40BC45AC
:1002E00005D36069802212060243626107E0800143
:1002F000171894376246380000F080FA39002161FF
:100300006069800B800300998904890C0143616155
:100310006069274901406161FF20801D711908183B
:10032000022182780A43827002788023134303708B
:1003300082780A42FCD00098F2BD80B50023FFF716
:10034000BEFF01BD13494A69920B92034A61FF2126
:10035000891D4018022182780A4382700278802326
:100360001343037082780A42FCD070471C0400409B
:100370003C440041020C0040C0FF0000FF70000040
:1003800000500041246080003FF80000E0FF0000C2
:10039000FF8F000064000020F3FF0000FEFF00005C
:1003A000C1010000BF0200003902000078010020F6
:1003B000FF3F00F05C020020FF3F0000FF22921D83
:1003C0008018002901D0202100E010210170704721
:1003D000F1B50568822040002818C078102101433B
:1003E000822040002818C170BF4CC04F3878207060
:1003F00078786070B878A080A088F9780902014305
:10040000A1803879E080E088797909020143E180B0
:10041000B87920812089F97909020143218140209E
:10042000822149006854627800200F218026120240
:1004300023781A43803A012A00D87BE0921E00D12B
:100440007AE07F3A15D0521E00D1B6E0BC4BD21AEA
:100450000FD0521E00D190E05B1ED21A2CD07E3BF2
:10046000D21A11D08033D21A60D0803A2BD0B54B3B
:10047000D21A00D1F6E0C0235B00D21A00D1F5E019
:10048000803A00D1FEE001E1A088F131884207D135
:100490002089132801D3122200E022897EA1EDE0F9
:1004A000A08849008842EED12089442801D3432204
:1004B00000E022890C34E0E02800FFF743FFA08829
:1004C0000643AE72F1BDA088009908712800FFF7BD
:1004D00039FF032092214900691808770007014974
:1004E00002E000BFFFFFFF8FB14A536C0B40034394
:1004F0005364FF234633EB1840241C7040371764C5
:10050000302482277F00EF193C77546B0C40204346
:100510005063922040002E541000D43010634020CD
:10052000D876506F01405167DE77F1BD0122009906
:10053000091DA3E060811DE06081E0885022024037
:10054000A270E0880140E180E088042823DAA078E6
:100550000028E08806D08321490040012818405C2B
:10056000810605E08321490040012818405CC1064E
:10057000C90F618102220A347FE0E0880640A6703C
:10058000E0880140E180A08800281ED1E088002892
:100590007CD0E088042879DAA078002806D0FF20F3
:1005A000801DE1884901691820225AE0FF20801D42
:1005B000E18849016918102253E0E0880640A670DE
:1005C000E0880140E180A08800285FD1E088002811
:1005D0005CD0E088042859DAA0780028E08820D090
:1005E0008321490040012818405C80063AD5881EC6
:1005F000E1884901691820220A54E088FF21083166
:1006000040012818405C40062CD50846E188490185
:10061000691840220A54C01EE18849016918022263
:100620001FE08321490040012818405CC00619D50D
:10063000881EE1884901691810220A54E088FF21C8
:10064000083140012818405C80060BD50846E18837
:100650004901691820220A54C01EE188490169181D
:1006600001220A542800FFF76DFEF1BD20890928F8
:1006700001D3082200E02289503421000098FFF7BE
:100680005CFEF1BDA08800994871EBE701212800CC
:10069000FFF794FEF1BD00001201100102000040BE
:1006A000EB032461100100000001000010B5414C73
:1006B00041482060FFF7FCFC21682000FFF770FD37
:1006C000200010BD01B50123012269463948FFF71A
:1006D000F6FD012002BD80B5012269463548FFF7CD
:1006E000ABFD6846007802BD0400002078010020C0
:1006F00010B5304C2000FFF763FD002805D0FF2027
:1007000048302168095CC807C00F10BD10B50C0047
:100710000123220001002748FFF7D1FD200010BD72
:1007200070B505000E00234C2000FFF749FD00289E
:1007300004D0320029002000FFF77EFD70BD0000CC
:10074000FF01000021170000F8B504000F00184D4C
:100750002E0080363000FFF733FD002826D03068A9
:10076000A22149004018402214490B78002B05D0E3
:10077000437840261E43467000230B702C64696C3E
:10078000890B89036964696C0D4B0B40B9030D4CEF
:100790000C401C436C6401780A430270C178C9079D
:1007A000FCD5C17801220A43C2703800F2BD0000B6
:1007B00064000020E4000020005000415C020020A2
:1007C000FF3F00F000C0FF0F130030B4140015000D
:1007D000103902D310393CC0FCD2490700D30CC0F9
:1007E00000D504C0890002D30280801C002900D5F6
:1007F000027030BC704700000022E5E710B504002D
:1008000000F002F8200010BD124207D08B0706D07E
:100810000B78491C0370401C521EF7D870478307A1
:1008200006D00B78491C0370401C521EF9D170474A
:1008300070B4103A03D378C9103A78C0FBD253078A
:1008400001D318C918C001D508C908C0D20704D3FC
:100850000B880380891C801C002A01D50B7803704B
:1008600070BC7047002802D101A0B84948607047A9
:10087000C5060000D7060000F10600000D070000C5
:10088000210700000D07000049070000F0B585B002
:10089000AE4A1378002B2CD0042901D1006804E063
:1008A000022901D1008800E00078490001AB5C1802
:1008B0000094641C0025302604E0373727700009B7
:1008C000641E6D1C8D4205D207073F0F0A2FF4DA14
:1008D0003743F3E71E70782058700A20009B987009
:1008E0000D20009BD870091D01A85268D26890475E
:1008F00002E05268D268904705B0F0BD72B6BFF30F
:100900005F8F0021924A1170EFF308818F4A916046
:10091000016881F30888406800477047F8B50025F2
:100920008A4CA5617A20A0704021200024306268A2
:1009300012699047606120002430E061256107E082
:10094000A070E560E069401CE0612069401C206106
:10095000206961698842E7D2E06900780100FF29D7
:10096000F3D0232900D0D6E02078002804D002213B
:1009700078A06268D2689047A178A06953292BD1EA
:10098000616922698A4216D2E3695B1CE361521CE9
:100990002261891AE268914200D3110021620A465D
:1009A0001946FFF731FF206A216909182161E169C1
:1009B0000918E161E0702069401E2061E069401E75
:1009C000E061E078E168884204D2091AA0696268AF
:1009D0009269904700BF92E0522904D1E1686268B1
:1009E000526990478BE04F2902D1E168017086E09F
:1009F000482902D1E168018081E0572902D1E168EC
:100A000001607CE06F2901D101210CE0682903D14C
:100A10000088E060022104E0772907D10068E060E7
:100A2000042120000C30FFF731FF68E00126472940
:100A300012D1E068FFF762FFA06880F3088844489D
:100A40000670BFF35F8F62B66078002857D006202B
:100A500061680968884752E0542901D1267049E04D
:100A60004E2909D12078002804D1022139A06268DA
:100A7000D2689047257042E0562940D1012136A026
:100A80006268D268904700BF3CA000F079F801008E
:100A90003AA06268D2689047012130A06268D268AB
:100AA000904700BF2FA0E061256101E0491C216152
:100AB000E069411CE161216900780028F6D100BF9E
:100AC00028A06268D2689047012124A06268D26899
:100AD0009047256126A0E06101E0491C2161E069A1
:100AE000411CE161216900780028F6D120A06268EC
:100AF000D2689047022117A06268D26890477A2096
:100B0000A070E5602078002804D0012114A062685C
:100B1000D268904716E70600E26813013700303FBD
:100B20000A2F03D230391943E1600BE73700413F08
:100B3000062F01D23739F6E7613E062E01D257392A
:100B4000F1E72C2900D0FBE6A261FAE6F8010020CB
:100B50005D0000200A0D000076000000200000006B
:100B60003E000000417567203131203230313400C1
:100B700032303A32373A353700000000312E31003A
:100B8000010000E0491C0A78002AFBD1081A7047CE
:100B9000F8B55F4801681E22914302220A430260B1
:100BA0005C4841695C4A0A40426100BF68A10B6829
:100BB0005A49C91C0A680F24A2430A60C91E0A7850
:100BC0001206FCD4C91C0C68554A13401D0083232F
:100BD0005B022B431C430C60C91E0C782406FCD41A
:100BE0005CA42468009400BF5BA424684D4E356863
:100BF000AD0E3F2D00D11F257668B605B60D970DB9
:100C0000BE4200D1D60D240C2404AD022E4326434F
:100C100034006D462D88444E2E4091256D0035439D
:100C20006E463580058B414E2E4006830568ED06E5
:100C3000FCD53F4D0562C4616C462488048300BF27
:100C400046A000680090491C0888BC0104400C8044
:100C500008886C462488374D254028430C0C0443F3
:100C60000C80891C08680F24A043012404430C60F5
:100C7000C91E08780006FCD4C91C08681A40104335
:100C80002D4A02430A60C91E08780006FCD4F1BD53
:100C9000F8B58024A40500202060600C416805465A
:100CA0000022D243914214D0244AC3001360062686
:100CB000234F3E705361D2691204D30F6A461370FA
:100CC0001278002A05D0006880F308881D48056066
:100CD0000847FFF75DFF01261B480670BFF35F8FD3
:100CE00062B6206840192060FFF7E0FC0400174D51
:100CF0002000A1688847002800D02E70287800289E
:100D0000F6D00020FFF7AEFDFFF708FEFCE700007D
:100D1000044000410C080040FFFCFFFF010C0040B4
:100D2000FFE0DFFF24608000FFF900007FFF00008C
:100D300080BB0000FF700000000701000444004178
:100D40004F44004108ED00E05D0000205D020020FE
:100D50000000000000000000000000000000000093
:100D600038B401210268001D002A0FD00368C3189F
:100D7000446808300C4202D04D466D1E64191D684F
:100D800025601B1D241D121FECD0F8E732BC7047F4
:100D900038B4012100220368001D002B0BD0046829
:100DA000001D0C4202D04D466D1E64192260241DA8
:100DB0001B1FF0D0FAE732BC7047000010B507499E
:100DC00079441831064C7C44163404E0081D0A6846
:100DD000891888470100A142F8D110BD0800000021
:100DE00028000000ADFFFFFFFC01000064000020B0
:100DF000000000006DFFFFFF600000007C000000AD
:100E00000400002000000000FEE70348FF218843A3
:100E100002490860012070470000000008ED00E072
:100E200080B500F001F801BDC046C046C046C046CE
:100E300000F000F8FFF7E9FF002801D0FFF7BEFF40
:100E40000020C046C046FFF723FF00F000F880B541
:100E500000F002F801BD00000746384600F002F835
:100E6000FBE7000080B5C046C046024A11001820CA
:100E7000ABBEFBE7260002000000000000000000FF
:100E80000000000009024300020100C00009040044
:100E900000010202000005240010010424020005E4
:100EA000240600010524010001070583030800FF53
:100EB00009040100020A0000000705810240000049
:100EC000070502024000000000C201000000080007
:080ED000000100000000000019
:0400000500000E29C0
:00000001FF
